:10000000D8380020211A00001D1A00001D1A000017
:1000100000000000000000000000000000000000E0
:100020000000000000000000000000001D1A000099
:1000300000000000000000001D1A00001D1A000052
:100040001D1A00001D1A00001D1A00001D1A0000D4
:10005000250200001D1A00001D1A00001D1A0000D4
:100060001D1A0000A1070000B1070000C107000031
:10007000D1070000E1070000F10700001D1A000091
:100080001D1A00001D1A0000E1160000F116000004
:100090000117000011170000211700001D1A0000B1
:1000A0001D1A00001D1A00001D1A00001D1A000074
:1000B0000000000010B5064C2378002B07D1054B3B
:1000C000002B02D0044800E000BF0123237010BDC4
:1000D000580100200000000004B1000008B5084BE2
:1000E000002B03D00748084900E000BF0748036819
:1000F000002B00D108BD064B002BFBD09847F9E739
:100100000000000004B100005C01002004B1000008
:100110000000000010B50020084B9847084CFA2159
:100120008900A047074B1860FA218900A047064BB9
:1001300018600522054B1A6010BDC046E11300008F
:10014000695F0000040000200000002010E000E0D3
:1001500030B5084B1C68084A00258021490206E09A
:10016000002C04D05460956013680B42FCD0013819
:10017000F6D230BD0400002010E000E00C4B1B68FC
:10018000002B10D1EFF31083002B09D172B6BFF30F
:100190005F8F0022074B1A700132074B1A7002E082
:1001A0000022054B1A70024A13680133136070472E
:1001B000740100200800002078010020084B1A6814
:1001C000013A1A601B68002B09D1064B1B78002BE3
:1001D00005D00122044B1A70BFF35F8F62B67047DF
:1001E000740100207801002008000020F0B583B0E1
:1001F00001AC012565700027A77025703E20211CE9
:10020000064EB0478022D205054B9A612770657073
:100210000F20211CB04703B0F0BDC0461103000001
:100220008044004170B50022154B1A7000231F2531
:10023000144E134C1F2B19D90FE0002100E0124976
:100240000A619B009B59002B00D09847237801330B
:10025000DBB223700F2BEDD911E0291C19400122CC
:100260008A40002109691142E7D1EFE7291C1940B2
:1002700001228A40044909691142E0D1E6E770BDD4
:10028000B4090020B809002000180040044A117881
:1002900002230B43137053785BB2002BFBDB7047D8
:1002A0000018004000B583B0124A916940230B4307
:1002B000936101A900230B7005200F4B984705207F
:1002C0000E4B98470E4A117801230B431370537855
:1002D0005BB2002BFBDB0B4B191C4031002204C32B
:1002E0008B42FCD11022084B1A60084B984703B090
:1002F00000BDC04600040040F91400006D14000069
:1003000000180040B809002000E100E08D02000064
:1003100000B583B001AB80221A700A785A704A780F
:100320009A708A78DA70191C014B984703B000BDA7
:10033000F115000010B54908402481420CD3002378
:10034000091A01339BB28842FAD9013B9BB240247F
:10035000FF2B01D813800024201C10BDF0B55F4690
:1003600056464D464446F0B489B01C1C12AB1B786F
:10037000061C5E4340258E4200D9C7E0251C07922B
:100380000C1C021C002D51D1181C00210023634DB0
:10039000A8478346261C00270023002402930394C9
:1003A000002200233F2020218C461F390096019710
:1003B00020246442041903D40D1CA540A84604E07F
:1003C0006446241A0D1CE540A8460C1C8440A14636
:1003D000141C1D1CA4185D41221C2B1C5E464746A4
:1003E0003E4203D00E1C2643321C2B1C019C9C4217
:1003F00010D802D1009C94420CD8009C019D121B85
:10040000AB414D46029E039F35433C1C4646344358
:10041000029503940138CBD200220123029803995C
:10042000121A8B41110C1B0419436CE00021012DA1
:1004300069D1610F0F1CE1008846181C00210023C0
:10044000364CA047041C0D1C00239C4620339B46C1
:10045000012663460593B9466B461B7D0693002330
:100460009C46002000213F220094019520235B42FE
:10047000D31803D4341C9C40231C04E05B469B1A15
:10048000341CDC40231C371C9740041C0D1C241812
:100490004D41201C291C0290039144463C40A24639
:1004A0004C4623405446234305D0029B039C1D1C0D
:1004B0003543281C211C019B8B420AD802D1009B8A
:1004C000834206D8009B019CC01AA14163463B436E
:1004D0009C46013ACAD2009C019D62460599531A76
:1004E000DB080F4A934208D9069A0132D2B206922B
:1004F0000A1C01320592082AAED14025069A082A24
:1005000004D051031943079B19800025281C09B00A
:100510003CBC90469946A246AB46F0BD8D600000BB
:10052000FF1F000010B582B0041C0E4B1B78002B7F
:1005300001D000290DD001A90C7013200A4B984757
:1005400013200A4B9847074B5C7001221A70002059
:1005500006E0044B5B78834201D01D2000E00020C0
:1005600002B010BD7C010020F91400006D140000E1
:10057000444B984233D006D8434B98420DD0434B5E
:1005800098421BD06FE0424B98424AD0414B984270
:1005900058D0414B984266D132E0012906D000295B
:1005A00063D0022906D0032906D001E03B4867E06A
:1005B000002065E03A4863E03A4861E0012906D04E
:1005C000002954D0022906D0032906D001E036487C
:1005D00056E0002054E0354852E0354850E001290B
:1005E00006D0002945D0022906D0032906D001E013
:1005F000304845E0002043E02F4841E02F483FE0ED
:10060000012906D0002936D0022906D0032906D0B8
:1006100001E02B4834E0002032E02A4830E02A484C
:100620002EE0012906D0002927D0022906D003296F
:1006300006D001E0254823E0002021E024481FE007
:1006400024481DE0012906D0002918D0022906D02F
:10065000032906D001E0204812E0002010E01F48E6
:100660000EE01F480CE000200AE01E4808E00320CE
:1006700006E01D4804E01D4802E01D4800E01D485A
:100680007047C0460010004200080042000C0042C3
:1006900000180042001C0042001400420300050044
:1006A00003000600030007000300010003001E0012
:1006B00003001F000300090003000A0003000B00F1
:1006C00003001100030012000300130003000D00DB
:1006D00003000E0003000F000300170003001800C2
:1006E00003001900030004000300080003001000C9
:1006F00003000C000300160030B587B00C4B6A46AF
:1007000032CB32C232CB32C2009B834206D00123AD
:100710009A0069465258824203D100E00023D8B2C1
:1007200003E00133062BF3D1002007B030BDC046F3
:10073000C48700007047C046F0B50A4B1B78002BF9
:100740000CD1094F094E0A4D0024DE515A1914608C
:100750000433182BF9D10122024B1A708000024B8E
:10076000C150F0BD7E01002080010020350700004F
:10077000F809002010B582B0041C6846054906221D
:10078000054B9847201C054B98476B46185602B0FE
:1007900010BDC046DC87000095770000F906000018
:1007A00008B5024B1B680020984708BD8001002057
:1007B00008B5024B5B680120984708BD8001002006
:1007C00008B5024B9B680220984708BD80010020B5
:1007D00008B5024BDB680320984708BD8001002064
:1007E00008B5024B1B690420984708BD8001002012
:1007F00008B5024B5B690520984708BD80010020C1
:10080000F0B55F4656464D464446F0B491B0051CDF
:100810000C1C161C2960081CB94B9847226805233C
:10082000D20700D563E122681733920700D55EE155
:10083000B4490A6A871C1B3BBB4013430B620FA9D8
:100840002D27F35D0B701430C3B20293181CAE4B0E
:1008500098470298AD4B9847F05D0021AC4B984704
:10086000F37A6B712423F35CAB712523F35CEB719A
:10087000F37E2B72337F6B722B689A46181CA04B49
:100880009847143000220E2306A98C4663441A8030
:10089000338A99468023DB01994519D004D88023F7
:1008A0009B0199450AD003E1C023DB0199450AD099
:1008B00080231B02994500D1FFE0F9E01023984600
:1008C0000F3B0793FDE008239846073B0793F8E0AA
:1008D00033689B46F368029373690393337E0493F2
:1008E0002623F35C059372680692002A15D08023B4
:1008F0005B059A4236D12723F35C002B36D1336A4D
:100900009846C0B2834B9847011C40460E2206AB66
:100910009C466244804B984725E008239846002374
:1009200007932723F35C002B0BD043460093306AD8
:10093000B16A0E2206AB9C466244079B774FB847CC
:1009400011E0336A1F1CC0B2724B9847011C43462A
:100950000093381C0E2206AB9C466244079B6F4FE7
:10096000B84700E00020031E00D0C0E0737E002BDB
:1009700002D0B37E524693732A68069FD369002B38
:10098000FCD10E3306AA944663441B8852469381D9
:10099000029B5A461343039A13433B434A4613436D
:1009A000049A12021343059A57071F432723F35C47
:1009B000002B01D104331F43337F5902727E93020F
:1009C0000B43727F120213432422B25C520413437E
:1009D0002522B25C12041343F17A19433389FF2BA9
:1009E00004D0802252041743194305E0F37E002B04
:1009F00002D08023DB041F432C23F35C002B03D1A4
:100A0000474B9B789B0701D580231F432A68D369F6
:100A1000002BFCD1534659602A68D369002BFCD1C6
:100A200053461F600EAB80221A7000225A70DA7093
:100A30009A70336B0A93736B0B93B36B0C93F36BDA
:100A400002930D9300270EAEF9B2BB000AAA985884
:100A5000002802D1201C334B9847431C05D030702E
:100A6000000CC0B2311C304B98470137042FEBD13A
:100A70000023EB602B616B61AB61EB612B62AB62BE
:100A80006B620022EB85AB853033EA540133EA54C4
:100A90000133EA540133EA542868194B9847041C7F
:100AA0002249234B9847A400224BE55000231EE027
:100AB000102398460023079303E00323984600235E
:100AC000079333689B46F368029373690393337EFD
:100AD00004932623F35C059372680692002A00D1E2
:100AE0001FE780235B059A4200D104E73EE7181C0C
:100AF00011B03CBC90469946A246AB46F0BDC046FC
:100B0000F906000000040040F91400006D14000014
:100B10002505000015150000350300005D030000E9
:100B20000020004171050000F1150000CD0C00000F
:100B300039070000F809002010B50368C4791C22A9
:100B4000002C0DD0C08D80B2173A002808D1DA6988
:100B5000002AFCD1198502211A7E0A42FCD000220B
:100B6000101C10BD10B5046882791C23002A33D0F4
:100B7000828D92B2173B002A2ED1227E52072BD5AE
:100B8000E369002BFCD1638BDBB29A0621D09A0774
:100B900003D50223638318331EE05A0703D50423C9
:100BA00063831A3318E0DA0703D501236383123312
:100BB00012E0DA0605D5628B1023134363834223C8
:100BC0000AE09B0605D5628B2023134363834123F0
:100BD00002E0238D0B800023181C10BDF8B5061C05
:100BE0000C1C151C07680A4B9847F38D9BB2002B11
:100BF00003D0084B9847052009E0F585054B984739
:100C0000B46205223323F254323BBB750020F8BD99
:100C10007D010000BD010000F8B5041C0D1C161C70
:100C200007680F4B9847A38D9BB2002B03D00D4B49
:100C30009847052013E0A6850A4B98476562052270
:100C40003223E2542E3BBB75237A002B01D02023A4
:100C5000BB75637A0020002B01D00823BB75F8BD5B
:100C60007D010000BD010000931C9B00C31859606A
:100C7000012393401A1C3021435C1A4342547047AD
:100C800008B5C2791C23002A03D00122024B9847E1
:100C9000031C181C08BDC046DD0B000008B501226E
:100CA000014B984708BDC046190C0000002902D02E
:100CB000012904D007E03223C05CC0B204E0332332
:100CC000C05CC0B200E017207047C046F8B5800095
:100CD000654BC5582C68E369002BFCD1237EA67DAB
:100CE0001E403123EB5C3022AF5C1F40F30722D55E
:100CF000EB8D9BB2002B1CD0AA6A1378DBB2511C7F
:100D0000A9626979012901D09BB204E051780902F6
:100D10000B430232AA62DB05DB0D2385EB8D013B21
:100D20009BB2EB85002B06D1013323750133A375EC
:100D300001E001232375B30709D50223237500229F
:100D40003133EA54FB0702D5281CEB689847730738
:100D50006AD5AB8D9BB2002B64D0638BDBB21A07D4
:100D600002D43F22134001E037221340002B37D03A
:100D70009A0707D51A223223EA54628B303B134379
:100D8000638327E05A0707D51E223223EA54628B79
:100D90002E3B134363831DE0DA0707D5132232236A
:100DA000EA54628B313B1343638313E0DA0607D5C1
:100DB00042223223EA54628B223B1343638309E0CD
:100DC00020221A4206D021323223EA54628B123B8F
:100DD000134363837B0727D5281C6B69984723E05F
:100DE000238DDB05DB0DDAB2696A0A706A6A511C71
:100DF00069626979012904D11B0A53706B6A013356
:100E00006B62AB8D013B9BB2AB85002B0CD10433E5
:100E1000237500222E33EA54BB0705D5281C2B6905
:100E2000984701E004232375F30607D510232375A3
:100E30002376FB0602D5281CEB699847B30607D535
:100E40002023237523763B0702D5281CAB699847DE
:100E5000330707D5082323752376BB0602D52B6AF3
:100E6000281C9847F8BDC046F809002008B5082896
:100E700003D880001B4B1B589F46002031E01A4BC3
:100E800018692EE0194B186A8005800F184BC34073
:100E9000181C26E0144B586923E0134B1B680220F2
:100EA00018401ED011491022CB681A42FCD00E4BBC
:100EB0001B685B0714D500200E4B98470A4B9B68B4
:100EC0001B041B0C58430CE05023084AD35C002041
:100ED0005B0706D5044BD86803E08020000200E0E1
:100EE000054808BDE4870000980100200008004084
:100EF00000127A0015150000006CDC0270B50C4C75
:100F0000236A0178857842780120024092014026C8
:100F1000B3431343021C2A40D2017F30834313435F
:100F200003220A40120203490B401343236270BD9F
:100F300000080040FFFCFFFFF0B55F4656464D46F7
:100F40004446F0B483B02E4EB38A9C46457803786D
:100F50005A425A41914683789B46C378027990461B
:100F6000477B027B0192847B826826484261012094
:100F70004A469200914604229246624651468A436E
:100F800094464A4661460A43944642460240D2008D
:100F9000904608229146624649468A439446424614
:100FA00061460A43944603401B0110229046624664
:100FB00041468A4313435946014049012022934345
:100FC0000B43019A0240920140218B431343074097
:100FD000FF01802293433B43793A15402D020A4F8B
:100FE0003B402B4304402003084C1C400443B48284
:100FF00003B03CBC90469946A246AB46F0BDC04605
:101000000008004098010020FFF8FFFFFFEFFFFFFE
:1010100010B5037A9B061A0C43899B059B0D13435D
:10102000194C6360818843881943C37982791343DB
:101030000B434278D201134323600378042B0FD172
:10104000037B9B06028A1343191CC3891B040F4AA6
:1010500013400B43A360216804230B43236011E07A
:10106000202B0FD1037B9B06028A1343191CC389D3
:101070001B04064A13400B43034A93601368044958
:101080000B43136010BDC046980100200000FF0311
:1010900024040000082803D88000254B1B589F46D5
:1010A000172044E0234A116A02230B4313620020F5
:1010B0003DE0204A916902230B439361002036E012
:1010C0001C4A118A02230B43138200202FE0194A85
:1010D000918A02230B439382002028E016490B6873
:1010E000022213430B60134B9A84191C0E32CB68F7
:1010F0001A42FCD0104A91680E4BD96252689A622B
:1011000000229A84191C1032CB681A42FCD00A4B78
:101110001B689BB2074A9384002008E005494422DB
:10112000885C022303438B54002000E000207047BA
:10113000088800000008004098010020F0B54F46E4
:101140004646C0B48FB0C222D200504B9A6050497C
:101150004B681E2293431A3A13434B60023A01AB89
:101160001A7000244B4DE0B201A9A8470134252C88
:10117000F9D10AA8002303708370802212028260D2
:10118000C37001220271837306214170437302739D
:10119000414B98470520414B98473C490222CB6878
:1011A0001A42FCD005AB00210022598099809A7127
:1011B000DA713F3159813E39D981033119705A7042
:1011C000374B1B689B0E3F2B00D1203B05A80372B9
:1011D000B723DB00038207230373324B984704A82D
:1011E00000254570057085702F4B984706202B4FC2
:1011F000B8472E4B984701AC01260296657006232E
:101200002370257265720120211C294B994698474D
:101210000120284B984698476660657065720523E3
:10122000237026720320211CC8470320C0470323D4
:1012300023700020211C174B984700201E4B984715
:101240000720B8471149D022CB681340D02BFBD1DF
:101250000E4A918C80230B439384184A0023137207
:1012600053729372D37201A901224A604B700B72C0
:1012700007330B704A7200200D4B984700200D4B2E
:1012800098470FB00CBC90469946F0BD000800404E
:1012900000400041F9140000390F000095100000D3
:1012A0002460800011100000FD0E0000C11200003B
:1012B000E51200009D1300006D14000000040040C2
:1012C000064A916908230B4393610122044B1A706B
:1012D000191C0B781342FCD17047C0460004004033
:1012E000000C004070B5061C041C0D782D0205434F
:1012F0004B78002B02D08023DB021D434B7A002B5E
:1013000002D080231B031D434868012818D9431EBF
:10131000184210D1022806D90223002201325B00B4
:101320009842FBD800E0002212023243141C8023B2
:101330005B031D4304E00402344380239B021D43EE
:101340000B7A002B02D080239B031D430F4A537856
:101350005BB2002BFBDB0E4B98470E4B1E700B4A0B
:1013600053785BB2002BFBDB084B9C601A1C537854
:101370005BB2002BFBDB054A516880235B020B400C
:101380001D435560044B984770BDC046000C00409B
:101390007D010000080C0040BD01000010B5041CD8
:1013A0000B4A53785BB2002BFBDB0A4B98470A4B86
:1013B0001C70074A53785BB2002BFBDB044A53686E
:1013C000802149020B435360044B984710BDC0462F
:1013D000000C00407D010000040C0040BD01000035
:1013E00070B5041C1A4A53785BB2002BFBDB194B17
:1013F0009847194B1C70164A53785BB2002BFBDBE5
:10140000134E7068C004C00E144B9847051C124B55
:101410001C707668F602F60F114B1C700C4A53785C
:101420005BB2002BFBDB0A4B9C68240AA4B20D4B79
:101430009847002E07D1012C07D9281C211C0A4BE4
:101440009847051C01E00134E540281C70BDC046EA
:10145000000C00407D010000040C00406D0E0000F7
:10146000080C0040BD010000695F000010B5041CBD
:10147000064B9847064B1C70064A51888023DB01B7
:101480000B435380044B984710BDC0467D010000BC
:10149000020C0040000C0040BD01000010B5041C0F
:1014A0000F4B98470F4B1C700F4B5A881205100FAB
:1014B00059880E4A0A405A8059880D4A0A405A8073
:1014C000191C8022D2014B881342FCD1064902022A
:1014D0004888064B034013434B80064B984710BD8A
:1014E0007D010000020C0040000C0040FFF0FFFFF7
:1014F000FFBFFFFFBD01000010B50C7824020443BC
:10150000024B9847A4B2024B5C8010BD9D140000B2
:10151000000C004010B5041C064B9847064B1C708D
:10152000064B5C882405240F054B9847201C054B6F
:10153000984710BD7D010000020C0040000C0040E7
:10154000BD010000E113000030B5D378002B1ED19F
:101550001478802C04D0240680235B021C4300E016
:10156000002453780225AB430AD19378002B03D192
:1015700080239B021C4302E0C023DB021C4341602A
:101580005378013B012B12D8184B1C400FE04160EF
:101590000B041B0CA024E405234383620B0CD02412
:1015A000240623438362D378002B18D01CE00B045D
:1015B0001B0CA025ED052B43234383620B0CD02588
:1015C0002D062B4323438362D378002B0CD1630376
:1015D00005D59378012B01D1816100E041615378F9
:1015E000013B012B00D8816030BDC046FFFFFBFFEF
:1015F00008B5031C0A1CC1090020002904D15809A0
:10160000C00105498C4660441F210B401E3999409A
:10161000024B984708BDC0460044004149150000F0
:101620007047C04608B5054B9847054B9847054B92
:101630009847054B9847054B984708BD3D1100005A
:10164000ED01000021160000A50200002116000097
:10165000931C9B001950022A04D1027E10231343CD
:1016600003760CE0032A04D1027E20231343037681
:1016700005E0012393401A1C037E1A4302760020E2
:101680007047C04638B58000144BC5582B689C7B0A
:101690002B7E1C406B7E1C40E30705D5281CAB68E5
:1016A000984701232A689373A30705D5281CEB6884
:1016B000984702232A689373E30605D5281C2B69F3
:1016C000984710232A689373A30605D5281C6B69D5
:1016D00098472B6820229A7338BDC046100A002014
:1016E00008B50020014B984708BDC046851600008C
:1016F00008B50120014B984708BDC046851600007B
:1017000008B50220014B984708BDC0468516000069
:1017100008B50320014B984708BDC0468516000058
:1017200008B50420014B984708BDC0468516000047
:1017300030B587B001A90C4B0A1C32CB32C212CB98
:1017400012C2019B834206D001239A0001A952587C
:10175000824203D100E00023D8B203E00133052B1D
:10176000F3D1002007B030BD2C880000F0B54F4603
:101770004646C0B489B0041C0E1C9046081C914B10
:1017800098478146904D291C143106A805228F4F99
:10179000B847291C1C3103A80A22B8470023A360BC
:1017A000E36023616361237663764B469A00884B3E
:1017B000D450266043469B78082B04D117204A4614
:1017C000D20700D4F9E0237133880520DB0700D568
:1017D000F3E0F37B1730DB0600D5EEE033889B07A0
:1017E00000D5EAE043461B7C002B0CD002A9012364
:1017F0008B700022CA704246127E0A704B704346BC
:10180000187D744B984743461B7F002B0DD002A9CF
:1018100001238B700022CA704246526A0A704B70D4
:1018200043461B6AD8B26B4B98476B490B6A4A46D2
:10183000520003A8125A13430B6243469B78082BAD
:1018400006D10B6A4A4601325200125A13430B6208
:1018500001A943461B780B7006AB4A469D5C281CC9
:101860005E4B9847281C5E4B9847434698881B89D7
:1018700003434246907992781043184343465B787D
:10188000002B02D080231B01184321687F22CB7BD1
:101890009343FCD130804346587B431E98418000DF
:1018A00043469B7B002B01D00123184321687F22F4
:1018B000CB7B9343FCD1FF333371002805D02168E3
:1018C0007F22CB7B9343FCD170714346987ADB7ABD
:1018D000002B01D01023184343461B7B002B01D063
:1018E0002023184321687F22CB7B9343FCD1B07126
:1018F00022687F21D37B8B43FCD12379042B05D035
:10190000082B41D01720002B57D124E07F21D37B17
:101910008B43FCD128334246D35C337421687F2249
:10192000CB7B9343FCD129334246D35C337521688A
:101930007F22CB7B9343FCD12A334246D35C337660
:1019400021687F22CB7B9343FCD12B334246D35C6F
:101950007376002031E07F21D37B8B43FCD143465B
:101960001B8D338221687F22CB7B9343FCD143467E
:101970005B8D338321687F22CB7B9343FCD143462D
:101980009B8D7383002018E07F21D37B8B43FCD198
:1019900043469B6A336121687F22CB7B9343FCD112
:1019A0004346DB6AB36121687F22CB7B9343FCD142
:1019B00043461B6BF3610020FFE709B00CBC904667
:1019C0009946F0BD311700002C8800009577000083
:1019D000100A0020F115000000040040F914000076
:1019E0006D14000010B502687F24D37BA343FCD1A3
:1019F0000379042B05D0082B0BD01720002B0BD11B
:101A000003E0C9B21174002006E089B211820020FF
:101A100002E011610020FFE710BDC046FEE7C046AE
:101A200070B52E4B2E4A9A4203D02E4B2B4A9A4227
:101A300004D32D4B2D4A9A4210D31EE02C4A294B39
:101A400003339B1A9B0801339B000022234824493F
:101A50008C58845004329A42FAD1EAE7254A224B44
:101A600003339B1A9B0801339B0000221F4800216F
:101A70001418216004329A42FAD11F4AFF211F4BE9
:101A80008B439360FD3990235B001D4AD1501D4864
:101A9000C3780324A34302221343C370C3780C26E4
:101AA000B34308210B43C370174B987B3025A843E1
:101AB000051C202028439873987BB04301439973F9
:101AC000997BA1430A439A73104A516880230B43C0
:101AD00053600F4B98470F4B9847FEE700000020DC
:101AE00004B1000058010020D8180020580100203F
:101AF000040000205C01002000ED00E00000000078
:101B00000070004100500041004800410040004189
:101B100049770000C5260000F0B5474680B40C1C8C
:101B20009046002810D1002A0ADD8F18094E0A4D70
:101B30003068211C2B6898470134BC42F8D101E081
:101B400000239846404601E00120404204BC9046F4
:101B5000F0BDC0462C0A0020240A0020F0B54746FC
:101B600080B40138022815D8002A10D0151C0E1C8C
:101B700000240C4B98460C4F43461868315D3B6877
:101B80009847002809DB0134A542F5D100E0002484
:101B9000201C04E00120404201E00120404204BC3E
:101BA0009046F0BD2C0A0020280A0020031C064A9B
:101BB0001268002A02D10549034A1160024A1068DE
:101BC000C31813607047C046B0010020D838002009
:101BD000012040427047C04680239B014B6000209B
:101BE0007047C046012070470020704770B582B032
:101BF000051C0E1C00226B46DA80064C281C6B4626
:101C0000991DA0470028F9D16B4606331B88337015
:101C100002B070BD650B000070B5051C8CB2034EA0
:101C2000281C211CB0470028FAD170BD390B0000D8
:101C3000F0B591B08023DB05009300230193FF22D0
:101C400069460A8100228B72CB72012424216846E6
:101C500044540131445401314354013143540A93F3
:101C6000053143540131435405930382C376027610
:101C70000277427613238376427780235B030393B4
:101C80001A4B0C931A4B0D9301235B420E930F9347
:101C9000E1235B020893174D174B1D60174A184B41
:101CA0001A60184A184B1A60281C18496A46184BC3
:101CB0009847184F3B6898680021174EB0473B681B
:101CC00058680021B0472E68301C144B98471F23DA
:101CD00018408440124B1C602A68D369002BFCD149
:101CE000326802331343336011B0F0BD02001600B6
:101CF00002001700B40100202C0A0020191C00006B
:101D0000280A0020ED1B0000240A002000140042D5
:101D10000108000054010020C5780000750700008C
:101D200000E100E070B5104B1B889BB2002B18D06F
:101D30000E4B1B681A780E4B1A800E4E1D1C0E4C53
:101D4000301C291CA0470028FAD1074A1388013B00
:101D50009BB21380002B06D0044A13680133136032
:101D600001E0064B984770BDEA010020EC0100201D
:101D7000700A00203C0A0020810C00009D26000013
:101D800070B5041C0D1C154B9847154B1C60154C69
:101D90002580154B984723889BB2002B17D0104BFA
:101DA0001B681A78114B1A80114E1D1C114C301CE7
:101DB000291CA0470028FAD10A4A1388013B9BB28C
:101DC0001380002B03D0064A136801331360054AC1
:101DD00013889BB2002BFBD1002070BD7D01000059
:101DE000EC010020EA010020BD010000700A002083
:101DF0003C0A0020810C000008B5011C0148024B80
:101E0000984708BD3C0A00209D0C000070B590B0BA
:101E10008023DB05009300230193FF2269460A819A
:101E200000228B72CB72012124206C462154013098
:101E3000215425316354013163540A9305316354AD
:101E40000131635405932382E3762276227762760A
:101E50001323A3766277E1235B02089380235B035D
:101E60000393204B0C93204B0D9301235B420E9365
:101E70000F931E4E1E4D1F4C301C291C6A46A04756
:101E80000028F9D1194D2C68201C1B4B98471F23A3
:101E900018401E3B8340181C184B18602A68D369F1
:101EA000002BFCD1226802331343236014481549E8
:101EB0008022D200144B98470C4C201C134901225D
:101EC000134DA847201C13490022A8473122A15CCA
:101ED00003230B43A3541048104B9847002010B025
:101EE00070BDC04603002800030029003C0A002002
:101EF00000180042010800007507000000E100E042
:101F0000300A0020740A0020DD200000211F00009C
:101F1000690C0000251D0000E8010020F91D0000EB
:101F200070B5064C064E074D2078B047201CA847D8
:101F30000528F9D0044B984770BDC046E801002041
:101F4000C1240000F91D00008D26000070B590B07E
:101F50004B4D2C68201C4B4B98471F2318401E3BB1
:101F60008340181C8023484AD0502A68D369002B2C
:101F7000FCD12368022293432360414D2C68201C2E
:101F8000404B98471F2318401E3B8340181C80235A
:101F90003D4AD0502A68D369002BFCD12368022225
:101FA00093432360364B1A68D369002BFCD101217F
:101FB00021608023DB05009300230193FF22684604
:101FC000028100228372C37224206C4621540130A6
:101FD000215425316354013163540A93053163540C
:101FE0000131635405932382E37622762277627669
:101FF0001323A3766277E1235B02089390235B03AC
:102000000393224B0C93224B0D93224B0E93224BA6
:102010000F931B4E214D224C301C291C6A46A047B1
:102020000028F9D1164D2C68201C164B98471F2309
:1020300018401E3B8340181C134B18602A68D36954
:10204000002BFCD122680233134323601548164944
:102050008022D200154B9847094C201C14490122BC
:10206000144DA847201C14490022A8473122A15C26
:1020700003230B43A3541148114B984710B070BD74
:102080003C0A00207507000000E100E003000400A6
:1020900003000500030006000300070000080042DB
:1020A00001080000300A0020740A0020DD20000032
:1020B000211F0000690C0000251D0000E801002020
:1020C000F91D00000120704708B502480121024BAC
:1020D000984708BD3C0A0020AD0C00000023838017
:1020E000C38002815200013A4281016000207047A2
:1020F00008B5024B1B68984708BDC046740E002007
:1021000070B58EB02F4B186001AC002300222370F5
:10211000A370A371238100216170A272E272227305
:1021200022746361A36122772362636223856385DE
:10213000A38580239B00A38001256573A573224E90
:10214000301C2249221C224B9847A3881B0A9D4021
:102150002078204B9847291C1F4B98471F4B18602D
:10216000301C012149421E4B984732687F21D37BA6
:102170008B43FCD1118802330B431380124B1A6836
:102180007F21D37B8B43FCD1803353710E4C201CB9
:1021900014490022144B98472068144B9847144B5D
:1021A0001B5C1F2213401E3A111C99400B1C114945
:1021B0000B60617E01230B43637623685A730EB074
:1021C00070BDC046740E0020A00E002000300042FA
:1021D0006D170000E1130000695F00007C0E002015
:1021E000E5190000F1200000511600003117000031
:1021F0005488000000E100E038B5431C18D0041CEE
:102200000C4D0D4B1868FA2189000C4B9847011CA6
:102210006143281C0A4B98472A687F21D37B8B4354
:10222000FCD113717F21D37B8B43FCD1403353719D
:1022300038BDC046A00E00207C0E0020695F000063
:10224000E5190000044B1A687F21D37B8B43FCD136
:10225000803353717047C046A00E002008B5034B71
:1022600098470520024B984708BDC046452200000C
:10227000F921000008B5074B1B78012B09D1064B4B
:102280009847002803D1054B80225A6101E0044B96
:10229000984708BD11000020C9200000804400417B
:1022A0005D22000008B50B4B1B68002B11D00A4BB8
:1022B0001B691B060BD4084B80229A61012802D1AE
:1022C0000430064B98470520054B984701E0054B25
:1022D000984708BDF00100208044004151010000F2
:1022E000F92100005D220000F0B55F4656464D46DC
:1022F0004446F0B483B00378CF20012B3CD1224B6D
:10230000984701AC0027A770012525700223637050
:102310002720211C1D4EB0471D4B9A468023534455
:1023200098468023424693612520211CB0472023F4
:102330009B4643465A465A613220164B9946984767
:1023400043465A469A616570A77025700620211C85
:10235000B04740235246936127706570A7700720ED
:10236000211CB0470C4B98470C480D4B98470D4823
:10237000C8470D4B1D70002003B03CBC90469946E9
:10238000A246AB46F0BDC046150100001103000097
:1023900000440041510100000D1E000075220000A4
:1023A00001210000AC0D0000110000200122014BB2
:1023B0001A6070470002002000207047002070471C
:1023C00038B5041C0020144B9847144B984205D193
:1023D000134B18684443134B1C6017E0124B984290
:1023E00005D1124B186844430E4B1C600EE0104B95
:1023F000984700220F4B104DA84700220F4B104D5D
:10240000A847104B98474443064B1C60054A136885
:102410005B00136038BDC046E113000000127A0073
:102420000C000020FC010020006CDC0214000020E5
:10243000F973000060E386411D61000000388340AD
:1024400065670000E1600000024B1A68501E1860CA
:102450007047C046FC01002072B6BFF35F8F0022B8
:10246000014B1A707047C046080000200122034B40
:102470001A70BFF35F8F62B67047C0460800002035
:1024800038B50D1C141CCF2301280DD1074B9847DC
:10249000074B9847074B98470120074B9847A1B235
:1024A000281C064B98470023181C38BD59240000EF
:1024B000C52000006D240000A5220000811D000041
:1024C00010B582B00190194B1B78022B19D1184B13
:1024D0009847019C17498888CB884A891B1A098923
:1024E000134099420AD01349CB889BB252081A4034
:1024F0000868845401334A891340CB800E4B9847B7
:1025000012E00A4B1B78012B04D101A801210B4BCF
:10251000984709E0054B1B78002B05D1019B5A2BEE
:1025200002D10122014B1A7002B010BDD106002069
:1025300059240000300A00206D240000893E00006C
:10254000F0B5474680B482B08046FA2000011C4BAB
:1025500098471C4E1C4D2C1CB047AB88EA889BB298
:10256000934211D0A3889BB261894A081A4020681F
:10257000825C01AF3A7001330B40A380134B984744
:10258000381C0121124B9847104B9847114B1B6880
:10259000012B03D0104B98470028DDD10D4B1B6851
:1025A000012B05D100230B4A13600C4A136002E093
:1025B00001234246137002B004BC9046F0BDC046F1
:1025C000C123000059240000300A00206D240000BF
:1025D000854000000002002049240000FC0100208A
:1025E0000122014B1A607047F801002070B582B0DB
:1025F0001A4B98471A4E1B4D2C1CB047AB88EA88E3
:102600009BB2934213D0A3889BB261894A081A40B7
:102610002068825C6846027001330B40A380124B35
:10262000984701A8009B03700121104B98470E4B5F
:1026300098470F4B1B68012B03D00E4B984700287F
:10264000DBD10B4B1B68D020012B05D10023084A9E
:102650001360094A1360002002B070BDC12300005E
:1026600059240000300A00206D240000854000003D
:10267000F801002049240000FC01002008B5024BAD
:102680009847012008BDC0465101000008B502204E
:10269000014B984708BDC046A52200000122014B0E
:1026A0001A707047F40100207047C0460022014BA9
:1026B0001A607047FC01002008B5014B984708BD1F
:1026C0004D1F000070B5804CA544804B9847804B4F
:1026D0009847804E301C804DA8478048804CA047CA
:1026E000301CA8477F48A0478023DB0007937E4B20
:1026F0000693012205AB1A70089306A87B4B9847F6
:1027000000280BD0734E301C734DA8477848744C8A
:10271000A047301CA8477748A047FEE77648774B8C
:102720009847002805D06B486B4B984774486C4B12
:1027300098476848684B98476F4881794279037990
:10274000C4780094847801944478029400780390CB
:102750006C48634CA0476C4B0093022301936B4879
:102760006B49002200236B4CA047002805D0594834
:10277000594B984768485A4B984768481B21684A04
:102780001223684CA047002805D05248524B984766
:102790006548534B9847C823DB00009300230193FF
:1027A0000133029300200121002200235F4CA04747
:1027B00000280AD04748484B98475D48484B9847FF
:1027C0008022D2055B4B9A6109E04248424B984710
:1027D0005948434B98478022D205564B5A613D4891
:1027E0003D4B984755483E4B9847554E3A4C5EE016
:1027F000544B6B441B78052B02D0062B23D052E0A0
:1028000006AA0BAB23CB23C2111C1A680A609B8853
:102810008B803048A04706A8817942790379C57832
:102820000095857801954578029500890390464882
:102830002B4DA8472748A0474448A8478022D205E7
:102840003C4B9A6133E00B9B06932248224B9847FE
:102850006B46997E1A8B3E48214B9847C823DB0074
:1028600000930023019301330293002001210022F1
:1028700000232E4DA84700280AD01648164B98472B
:102880002B48174B98478022D2052A4B9A610EE0BD
:102890001048114B98472848114B98478022D20581
:1028A000244B5A6103E08022D205224BDA6125488D
:1028B00068440BA901225242B047002898D000205A
:1028C0008C239B009D4470BDD0FDFFFF25160000AA
:1028D000311C00005C880000B178000060880000B6
:1028E000B97700008088000004020020D931000080
:1028F00098880000B8880000D4000020A9330000A8
:10290000F48800000C8900001800002090000020CE
:1029100004060020593C000044890000A400002067
:10292000C0000020FD3300006C89000081340000ED
:102930009889000080440041B8890000D0890000D7
:10294000512A00002F020000F4890000308A0000A4
:10295000488A000070B50D4D2C68002C15D02668F3
:10296000E2602E6000250A4A238113682560A0805A
:10297000E180AB4201D1146005E01A68002A01D061
:10298000131CFAE71C60034B984770BDAC0600208F
:10299000A8060020E1250000074B0022191C10B5F5
:1029A0001868064B9C18D0501032201CA02AF8D171
:1029B00090330B6010BDC046AC0600200806002016
:1029C00038B51B4C031C2588081C211C9D4207D1CF
:1029D000A588854204D101235B422380A26009E0DF
:1029E0004C889C420AD18C88844207D101235B42E7
:1029F0004B808A600F4B9847012017E00E498B42AD
:102A00000ED00E498B4207D00D4900208B420DD1CC
:102A1000101C0C4B9847EFE7111C0B4B002202E0F7
:102A2000111C0022094B98474342584138BDC0460B
:102A3000BC0E0020AD230000130E0000150E000098
:102A4000010E0000394900004D4A0000254B0000EE
:102A50000023F0B587B004920370049B0390013B00
:102A60000D1C0593033302D80498B64B98470023F6
:102A70000293049BB44C01330BD02368002B11D17B
:102A8000029BD02B00D1A7E20498B04B984702904C
:102A9000F3E72368002B05D10120AC4B4042984757
:102AA0000290F6E7029BD02B00D195E223681A68CA
:102AB000D9682260DA880192A54A9C881068136060
:102AC0001860029B002B00D073E2A24B9C4208D1FD
:102AD000019BA34200D05CE23823039A1370296063
:102AE00067E2019BBB2B25D1BB2C23D16B461B89F5
:102AF000AB808B784A781B02CC78087913434A79EB
:102B00009549AC702B808B4206D8944A93420BD2E5
:102B1000934A934208D009E092498B4206D11302AE
:102B20000343AB80372302E0362300E00023039AFF
:102B300013703EE28C4B9C4200D199E100D983E0B6
:102B40008A4B9C4200D1F4E13CD8894B9C4200D195
:102B5000F3E116D8874B9C4200D1CCE104D838264B
:102B6000B44200D123E214E2834B9C4200D1C8E17D
:102B7000FE33FF339C4200D00BE201982A1C7F4BAE
:102B80008BE17F4B9C4200D1C7E10DD87D4B9C422D
:102B900000D1BCE17C4B9C4200D0FAE101982A1C98
:102BA0007A4B9847142602E2794B9C4200D1BAE155
:102BB000784B9C4200D0ECE101982A1C764B984758
:102BC0001826F4E1754B9C4200D1C3E11ED8744B2A
:102BD0009C4200D1C5E10DD8724B9C4200D0D8E197
:102BE00001982A1C704B9847A988061C6F4B2888AF
:102BF0009847DCE16E4B9C4200D1A4E16D4B9C42B6
:102C000000D0C6E101982A1C6B4B46E16B4B9C42FD
:102C100000D121E109D8083B9C4200D118E1684B62
:102C200039269C4200D1C2E1B3E1D1231B019C4271
:102C300000D117E1634B9C4200D0AAE1081C624B13
:102C4000291C98470F26B2E1604B9C4200D12CE131
:102C50003DD85F4B9C4200D149E119D85D4B9C4265
:102C600000D111E107D8033B9C4200D091E10198CB
:102C70002A1C594B11E1594B9C4200D1FEE0584BA4
:102C80009C4200D085E101982A1C564B984766E18A
:102C9000554B9C4200D1FDE00BD8544B9C4200D1D7
:102CA00021E1534B9C4200D073E101982A1C514B07
:102CB000F3E0514B9C4200D1F1E0504B9C4200D0DC
:102CC00067E101982A1C4E4B98470E266FE14D4B49
:102CD0009C4200D1FBE020D84B4B9C4200D1FCE051
:102CE0000DD84A4B9C4200D1E5E0494B9C4200D0B4
:102CF0004FE101982A1C474B9847122657E1464B53
:102D00009C4200D1DDE0454B9C4200D041E1081CD3
:102D1000434B291C98472A2649E1424B9C4200D14B
:102D20002BE100D986E0404B9C4200D11FE13F4B94
:102D30009C4200D02DE101982A1C3D4B984730263B
:102D400035E1C046C1230000A8060020ED250000A3
:102D5000AC060020FFFF00001E2000001D20000028
:102D6000030C00001F2000001C0D00000C0C0000D4
:102D7000020C0000020A0000030A0000F9590000DA
:102D8000060C0000040C0000050C0000E5580000D3
:102D9000070C0000090C0000D95A0000170C0000B5
:102DA000120C00000D0C0000A5590000095800008D
:102DB000130C0000150C0000FD3D0000080D000084
:102DC000010D0000150D0000595500001B0E0000FC
:102DD0000F0E0000030E00009D460000060E0000CE
:102DE0000A0E0000FD4C0000150E0000110E000040
:102DF000130E0000254B0000170E0000190E0000F6
:102E0000954C0000270E0000210E00001C0E000053
:102E10001D0E00001D4E0000220E0000250E0000B9
:102E2000A34E0000051B0000011B0000031B000057
:102E30001F5F00006B4B9C4200D1A4E06A4B9C4298
:102E400000D0A6E001982A1C684B98473226AEE0D5
:102E5000081C674B291C0EE0081C664B291C984770
:102E60000426A4E0081C644B291C984701269EE018
:102E7000081C291C614B9847061C98E001982A1CE5
:102E80005F4B9847112692E0081C5E4B291C98471F
:102E900006268CE02A1C01985B4B9847ECE70198CA
:102EA0002A1C5A4B98470D2681E001982A1C584B42
:102EB00098470B267BE001982A1C564B9847102612
:102EC00075E0081C544B291C984728266FE0081C05
:102ED000524B291C9847292669E0081C504B291C95
:102EE0009847272663E001982A1C4E4BD5E70198A6
:102EF0002A1C4D4BD1E7081C4C4B291C98472B260C
:102F000055E0081C4A4B291C98472C264FE0019895
:102F10002A1C484B9847132649E001982A1C464B27
:102F20009847152643E001982A1C444B98471626DB
:102F30003DE001982A1C424BAFE701982A1C414B07
:102F40009847232633E0019B081C1F0A2F80291C69
:102F50003D4B90E7081C019A291C3C4B98473A26A8
:102F600025E001982A1C3A4B984720261FE001983B
:102F70002A1C384B9847332619E001982A1C364BF7
:102F80009847342613E001982A1C344B984735267D
:102F90000DE0B622324E3349FF32334B37683348A7
:102FA000B847336832480199221C98470026039B92
:102FB0001E70039B1B783A2B03D0059B033305D966
:102FC0000DE0029B002B00D151E5F6E7029BD02BD0
:102FD00005D0284B984702E0D0230293E9E70298F6
:102FE00007B0F0BD061B0000081B0000375F0000A3
:102FF0008D51000071510000D15400007D5500003A
:10300000A14D0000194A00004D4A0000754C000017
:10301000554D00006B4D0000354E0000634E000022
:10302000794E0000A34C0000CD4C00002D3E000066
:10303000593E0000A95800002D59000071590000A8
:10304000A5590000C95A0000913D0000C13D000093
:10305000195B0000155F0000255F00002B5F00007A
:10306000F0000020A58A0000158B0000888A00006F
:10307000EB8A0000AD26000038B5002802D04B1EB8
:103080001F2B0CD991220D4C0D4952000D4B0E48AF
:103090002568A84723680D489847CF200DE00C4AC3
:1030A000131CAA33198000231C1CC55CAC340133EB
:1030B0001555DCB28C42F7D3002038BDF00000205B
:1030C000478B0000D38D0000888A0000B58B00007C
:1030D000580F0020F0B5067989B0041C032E0CD9D6
:1030E0007A22334D3349FF32334B2E683348B04791
:1030F00021792B683248984720E003780F2B0DD9AF
:10310000BF222B4D2B4952002B4B2E682B48B0472A
:103110002B6821782B489847E02546E08023878C50
:103120009B009F420CD9C222214C234B23482149AA
:1031300052002568A847236823489847CF2534E0E4
:10314000C57F837FAD015B011D43C37E1D43437F6C
:103150001B011D43037F9B001D431C4BEDB21E71E1
:103160000079032809D802F0F5FE020406060023C0
:1031700002E0012300E002232371231C0B3361884A
:1031800007932379207800930195258C621D029581
:10319000658C079B039504970D4DA8472671051C68
:1031A000211C0A4826220B4B9847281C09B0F0BD69
:1031B000F0000020478B0000318B0000888A00005F
:1031C000C88B0000E68B0000038C0000580F002025
:1031D000C94F00009577000070B586B0041C5B49AC
:1031E00003A80B225A4B98475A4D002C0ED020684A
:1031F0006168594B9847A068002807D0A847041E6B
:1032000016D0564D564857493E220BE0012301A8DF
:10321000037000234370A847041E09D048224F4D75
:103220004F485049504B2E68B0472B684F4887E0B5
:103230004F4B98474F4B9847041E0CD0474D4A4B75
:103240004748484953222E68B0472B684A4877E0E0
:103250002378392B09D06B460122DC1C201C01A9E4
:103260005242464B98470028F2D00122444B1A6044
:10327000444B98470023041E9C4209D0374D3A4BDB
:103280003748384963222E68B0472B683E4857E0DC
:1032900001213E4A49429A1812335181902BF7D1AD
:1032A0003B4C813B23703B4B3B4A638000232371A3
:1032B0000133581E19010143023311700132212BD1
:1032C000F7D180229200A284221C00237332137053
:1032D000221C72321370221C76321370221CCC32E4
:1032E0001380211CA022D03152000A80211CCE3133
:1032F0000A80221CD2321380FA21221C4900D432C7
:103300001180221CD632E37623776377A377E377A5
:10331000238463841370201C204B98470723743444
:10332000237003A80B211E4B9847041E0AD00B4D97
:103330000D4B0B480B4991222E68B0472B6819485A
:10334000211C9847201C06B070BDC046268B00008B
:1033500095770000E9220000213C0000F0000020E9
:10336000888A0000478B0000B58D00002D8C00007E
:10337000992900001D3F00004E8C0000512A0000DA
:10338000F0010020C54E00006C8C0000C80E00202B
:10339000580F0020983A0000630F0020D53000003D
:1033A00079300000838C000038B5451C031CCF2009
:1033B000002D18D01A78032A15D8012A02D15A787C
:1033C000002A10D01C1C291C0622074B07489847CE
:1033D000237807480371074B98472378002B02D1C5
:1033E000281C054B984738BD957700005D0F0020DD
:1033F000580F0020D530000015440000F8B5844671
:103400000F1C161C1C1C002802D1E220002A2BD005
:10341000CF201F2F28D81F2C26D86346002B0ED074
:103420001248134D002F04D1391C1F22114B98470D
:1034300003E061463A1C104B984772352F70301EDE
:1034400012D00B4D0D48002C07D1211C1F22094B17
:10345000733598472C70201C06E0311C221C064B4B
:103460009847002073352C70F8BDC0468C0F0020A3
:10347000580F0020A777000095770000AB0F0020C1
:10348000F0B591B0041C16A8058817A8078818A8DD
:1034900000780D903D48733000780C90CF20012CBF
:1034A00002D1002F70D126E0042C6DD88026F601C1
:1034B000B54269D8002C02D11F2D65D903E09F2D9C
:1034C00001D8012C60D1002B08D04E1ECF20012E38
:1034D0005AD9012C02D1002D00D120350F932C4B4D
:1034E0000E91161C9847011C601E002E3BD03378AD
:1034F000002B09D134E08026F601B54244D8561C91
:1035000042D0002BE1D1E6E70123032832D90D2078
:10351000721C02E00E20321EFAD11C4C7434267844
:103520000724002E00D0341C00920E9A03940492BB
:103530000F9A01950592154A029572321278154C30
:103540000692154A07920C9A0892144A099264222C
:1035500057430D9ABFB20B920A97114AA04713E046
:103560000328D4D805E0032803D9331C0D20321CCE
:10357000D3E7002302F0E4FCCE0604020F20CAE7E2
:1035800000220C920C20C6E711B0F0BD580F0020AD
:10359000B9540000015300008C0F0020AB0F002035
:1035A000983A0000CF23022801D8024B1B5C181C5C
:1035B0007047C046C18D0000831EDBB203200E2B76
:1035C00001D8014AD05C7047C48D000070B5051C5D
:1035D00000240C4B19680C4B1E688C4210DC0C202C
:1035E0006318DA0FD318021C5B105A43B018028814
:1035F000AA4201D2591EF0E7AA4202D95C1CECE7AC
:10360000002070BDC4060020BC06002030B5032495
:10361000051C01232540A54209D0231C2419204262
:1036200005D1023B184202D14B1E99418BB2302189
:103630000140302907D0410601D4810601D5074851
:1036400009E0C10601D5064805E0002A01D00422A0
:10365000134380208001184330BDC0460C20000079
:103660000420000030B50023840703D5013319423C
:1036700000D10233040708D5CC0601D5042400E0AC
:103680000C2423438024A4012343840606D5062466
:10369000214201D10A3400E030242343C40606D578
:1036A0000624214201D13A3400E0C024234380247F
:1036B0006400204200D02343C40702D58024A40024
:1036C00023430424204206D0CD0600D40C242343F7
:1036D000802424012343440601D5084C23430006DB
:1036E00007D50420C90600D40C20034384208001A0
:1036F00003439003034398B230BDC046041000005A
:1037000007B56A460B7813704B7853704B889370EB
:103710001B0AD3700B791371CB88072153711B0AD5
:103720009371014B98470EBD095D0000F7B5294C18
:103730001D1C23680190D326002B48D01E1C0C3E74
:103740002660002905D0244FBC4660463F68BF185C
:103750000760214807688446BE4232D9684680889F
:103760000C3B18802368002909D0002A07D0604646
:1037700000689A80801A9860184B984702E00021F0
:103780009A80996000232268937003332B40032BA7
:1037900001D06B0704D50121226893780B43937005
:1037A00030232B40302B01D06B0604D50221226838
:1037B00093780B4393700A4A002613680133136011
:1037C00005E023601126002901D0BA1A0260301CDE
:1037D000FEBDC046BC060020C00600209577000054
:1037E000C4060020F8B5061C0C1C151C1F1C002A62
:1037F0001BD003220A40033A534253414A07D20FD7
:103800001A43104BD2039C4604D0291C3A1C231C9B
:10381000E04716E0111C231CE047002811D1301CA2
:10382000391C2A1C084B98470BE08622074C084994
:103830005200084B08482568A8472368074898475E
:10384000CF20F8BD2D370000095D0000F0000020FA
:10385000EA8D0000368E0000888A00002B8C000064
:1038600037B5094B051C081C0C1C9847002809D0CB
:103870008268002A06D08388291C0092201C00221E
:10388000024CA0473EBDC046CD350000ED550000BE
:10389000F0B58BB0049310AB0024029204CB10223D
:1038A000051C1B880691059312AB1B78211C039302
:1038B000C44B1E68C44BB71D72803480381C9847B7
:1038C000C24B28789847C24B021C691C381C984789
:1038D00004222B7874711B011343039A029C9201FA
:1038E000134333711623049A12345343029A12334A
:1038F000D718BC420FD0B74B218800930E2306AADD
:103900009B180193B44D301C01220223A8471634A2
:10391000051EEED081E1109F002314373C1C02935A
:10392000029B059A934200DBBFE0AC4B06AA0093D2
:103930000E239B180193A84D301C04210122022361
:10394000A847051E00D068E1231C123B257B1B788D
:10395000291C1A1C03932088A14B984703232B4052
:10396000033B594259410123AD081D400D43638972
:10397000ED031D430790954B03989847221C113A7D
:103980000092033A031C0192291C301C924D079AA5
:10399000A847051E00D040E1C022238852001342F0
:1039A00004D1A38A0393002B16D13AE00122D9094E
:1039B0001140DB0501D5022319438A4B06AA009367
:1039C0000E239B180193844D0902301C012202230F
:1039D000A847051EE5D020E180232288257F5B00D3
:1039E0001A40281C0121002A00D00A1C7E4B98474F
:1039F00003222A40033A514251417C4B0A1C009356
:103A0000231C6D07ED0F2A43D2031043203382B2EB
:103A10000193714D301C03990223A847051E00D065
:103A2000FBE0012123880B4211D0A07F6E4B0022C6
:103A300098476F4B021C0093231C24330193664D5F
:103A4000301C6C490223A847051E00D0E5E0302356
:103A500022881A4212D00121607F0A1C624B9847CB
:103A6000654B021C0093231C223301935A4D301CDA
:103A700060490223A847051E00D0CEE0A369002BB1
:103A80000ED05E4B06AA00930E239B180193524D55
:103A9000301C072101220223A847051E00D0BCE0EC
:103AA000029B3C34013302933AE7301C544B984755
:103AB000051E00D0B1E03388069A13803688049B37
:103AC000059AF618B3B202933C235343109A143369
:103AD000D3180493049B9F4200D19EE0029B9C1C40
:103AE0003B1CA4B2143B1C8003933B89002B08D1E0
:103AF000C0233A885B001A4226D0029E0336B4B235
:103B000022E003213B7B194003394A424A415907CD
:103B1000C90F1143C9037A89002907D079680029A0
:103B200000D13849201C384EB0470AE0201C364EE0
:103B3000B047002870D1039B398918887A68334BC5
:103B400098470028D4D067E0BB8A002B0AD0013404
:103B5000A4B23C84397FFB8A201C3A692C4EB047C2
:103B6000002859D13B88DB070DD500220134A4B2CF
:103B700009A9BC84BB7F201C0A704A70224E023205
:103B8000B047002848D130233A881A420DD000228D
:103B90000134A4B209A97C847B7F201C0A704A707E
:103BA000194E0232B047002836D1B969002906D033
:103BB0000134A4B2201C174B984700282CD13C3765
:103BC000029487E7C8060020A7770000A53500000B
:103BD00095770000DB000020715C0000DD00002014
:103BE00065360000E70000200D360000E5000020EB
:103BF000E300002002800000DF000020E100002040
:103C0000295B0000B80600202D370000095D000088
:103C1000E537000001370000051C281C0BB0F0BD83
:103C2000084B094A18604B081360084AC318136010
:103C3000074A41181360032303319943054B0439A4
:103C400019607047C8060020B0060020B4060020A6
:103C5000C0060020BC0600207FB508AC40CC051C87
:103C60002488CF20002D0CD000290AD0002E08D0A7
:103C7000002C06D0CE38019402900096281C024CED
:103C8000A04704B070BDC0469138000070B50B4B22
:103C9000061C0C1C151C9847002808D080680028BA
:103CA00005D0211C2A1C064B9847002004E0301C3C
:103CB000291C221C034B984770BDC046CD3500001F
:103CC00095770000095D000070B50C4B061C0C1CBC
:103CD000151C984700280BD08368002B08D08388D8
:103CE0002B8082888168064B201C9847002004E0C6
:103CF000301C291C221C034B984770BDCD35000099
:103D0000957700000D5E0000F0B585B0041C0191B0
:103D1000002929D14788184B381C261C984708369B
:103D2000002809D08068002806D0A388E288C0183F
:103D3000311C124B984717E002AB9D1D00232B80CE
:103D40000F4B2A1C1B68381C191C00930D4B9847FD
:103D5000009BA088E2881818311C084B984760889F
:103D60002A880099084B984760882188019A074B58
:103D70009847002005B0F0BDCD35000095770000D4
:103D80009CAC0000C93C00008D3C0000BD5600000A
:103D900038B50C1C074B98476588074B281C98477B
:103DA00083782620DB0704D42088291C034B9847FE
:103DB0003A2038BD9D550000CD3500006138000027
:103DC00038B50D1C0A4B141C98472D88094B281C2C
:103DD0009847220A031C084C91B2002803D082881D
:103DE0000023281C01E0281C0122A0473A2038BDEE
:103DF000E1550000CD3500005D57000010B5141CE2
:103E0000074B9847074B6088984702238178222008
:103E1000194003D1201C044B98471F2010BDC046F9
:103E2000A9550000CD350000093D000010B502780D
:103E30000A70837844781B0223434B800379C0784F
:103E40001B0203438B80002A03D1024A13780133FB
:103E5000137010BDE900002008B5031C42780078FB
:103E6000120202430A80DA789878120202434A80EA
:103E70005A791879120202438A80881D991D014BD4
:103E8000984708BD9577000030B50B4A0B49136879
:103E9000042B01D100240C60013B0078DD00A84018
:103EA0000C68136020430860002B04D10121044BEF
:103EB00019700423136030BDEC000020CC060020F4
:103EC000D006002070B50D1C00241149022806D12F
:103ED00052230B7005334B70363B8B700334062333
:103EE0002E0E0B550B195E702E0C9E701D712E0A36
:103EF000150E5D71150C9D711A72150A221CDE706B
:103F0000DD710932034B9847034B0220984770BD7F
:103F100030100020812400007D260000F0B585B01F
:103F2000022203A83849394B9847394E3278012A82
:103F300002D0FA24E4000CE0101C03A9354B98478A
:103F400000285ED1F5E70120334B013C9847002C57
:103F500004D0324B1A780193002AF4D0019B1B78CD
:103F6000002B03D12E4B9847D1204AE02D4B2A4DF0
:103F70001B782D4C012B15D13078012812D12B49FB
:103F80002B4AA04730782B492B4AA04730782B4941
:103F90002B4AA04730782B492222A0472A4B98472A
:103FA000C820A84736782949301C294AA047294902
:103FB0000322184B301C98470220A847264D274F54
:103FC0000135274B24492A78FB18CB5C12021A438F
:103FD0006B78391C1B041A43AB78301C1B061A4340
:103FE000A047204B043704359F42EAD17822301C89
:103FF0001D49A047301C1D4B984702230020019A01
:10400000137005B0F0BDC0464E8E000095770000DD
:1040100011000020812400007D260000D106002030
:10402000A926000010000020C53E0000A8B10040F5
:104030003F3F0302ACB1004001003F3F48B00040A9
:104040003311110044B00040B926000008F40040CC
:10405000060C0000508E0000548E000084510010A9
:104060007CAEFFEFCC6F001044F0004089420000AE
:10407000034B1A78002AFBD000221A707047C04602
:10408000F4010020F7B5694B1A78022A00D0BCE091
:10409000041C43180193019B9C4200D1C4E0644D71
:1040A0002B68002B12D12278052A04D16149043AE9
:1040B0002A600A7007E0042A00D0A4E00121023A35
:1040C0002A605C4A11705C4A13609CE02B68012BEB
:1040D0005FD1584A1378012B31D1574857490368AB
:1040E0002678CE5401330360082B00D08BE048784B
:1040F000063B13700B78000218434B790A791B02B8
:104100001343CA79897912020A434D4F4D4E4E49E5
:10411000388033800A800BD1191C4C4B9847031E02
:1041200004D1318838881A1C494EB04700232B60CF
:104130009622484B92001968521A434945E0022BD7
:1041400061D1444920780B68434A3F4ED054434ADA
:1041500036881268581C0860871AB74253D1002667
:104160002E600325284202D00533AB430B60344F49
:10417000344E394D38883188AA18344B9847002876
:1041800041D1364B38881A682F4B3188AA181B88C2
:1041900037E02B68022B36D126490B78012B02D051
:1041A000022B1BD02FE02448244A03682578D554DD
:1041B00001330360022B26D10B70537896222249DB
:1041C00092000B70234B1868121A09888A4201D298
:1041D00000221A601A68214B1A6014E01D492278E7
:1041E0000B681D48C25401330B601C4A1649126803
:1041F00009889B1A8B4206D100218218BB202960B6
:10420000011C134DA847013445E71978C9B20129AB
:1042100002D1134B984707E01A78002A04D102789C
:104220005A2A01D1593A1A70F7BDC046D10600206A
:10423000D8060020D40600204C0900203A090020AE
:10424000E0060020D206002048090020C129000015
:104250005529000044090020E2060020DC06002069
:10426000893E000038B5051C0C1C044B9847044BD4
:10427000291C1878221C034B984738BDBD23000029
:10428000110000208124000038B5051C324C334950
:10429000334AA047281C3349334AA047281C3349D6
:1042A000334AA047281C3349334AA047281C3349C6
:1042B000334AA047281C3349334AA047281C3349B6
:1042C000334AA047281C3349334AA047281C3349A6
:1042D000334AA047281C3349334AA047281C334996
:1042E000334AA047281C3349334AA047281C334986
:1042F000334AA047281C3349334AA047281C334976
:10430000334AA047281C3349334AA047281C334965
:10431000334AA047281C3349334AA047334A281C54
:104320003349A047334B1A78012A02D1281C32495D
:10433000A047281C31490122A047281C30490122EE
:10434000A047281C2F490422A0470222281C2E49DE
:10435000FF32A04738BDC046C53E0000C001041072
:104360000B6700100C000410E15200101000041044
:10437000AD5300104C000410195400103400041008
:1043800043550010680004102D58001088000410D8
:1043900035590010BC000410395A0010E400041014
:1043A000595B0010E8000410795D0010EC00041067
:1043B0002D5E00100C010410BD5F001054010410AC
:1043C000996100106001041049620010740104102A
:1043D000D163001010020410D969001038000410D5
:1043E000FB5600100400001067570010D75600104D
:1043F0003C00001010000020706F001068010410D5
:10440000146F0010186F0010000004100FB400208B
:1044100004B07047F0B52F4B85B01B78011C2E4AB5
:104420000024022B07D15220136803341870053082
:10443000587036389870052315680F220327002618
:104440002B55631CEA54A31CEF54E319EF54231DAE
:10445000EE540132631DEA54A31DEE54E31DEB1824
:104460001E700093231C201C0833EB1809300193A5
:104470001E700A3A194B28189847211C184B194AE4
:104480000F311A80134A9F8012781F1C0B1C022ABE
:1044900001D10C3B00E0093B009A281C1370019BE2
:1044A0001E70114B9847051CE120002D0FD10F4BBA
:1044B000984702ABDC1DDD71201C0D4B98470D4B5E
:1044C00098472378D020002B01D1BB68187805B01D
:1044D000F0BDC04611000020A0AC000095770000A0
:1044E000BC0E00202903000065420000714000005E
:1044F00041250000B9230000F7B5474B474A1C7817
:104500000023022C07D1136850341C7005345C70F2
:10451000363C9C700323146805220B25E2545A1C78
:10452000A5549A1C0335A554DA1C2935A5541A1D27
:10453000A15410215A1D1E1CA1541D1C0022991D9E
:10454000DF1D08366254E7190331A6190A353A709F
:10455000327060540231625501283ED0904226D01C
:10456000022844D12E4A101CCE30058865541D1CEB
:1045700001880C35090A6155111C181CD0310D88B1
:104580000D30255409880130090A2154111CD231FB
:104590000D880130255409880130090A2154191C5D
:1045A000D432108811316054123302311CE01C4D9A
:1045B000AA352A8862541A1C0D3201922A880C33BB
:1045C000120AE254019B1749E0182A88164B9847B3
:1045D0002988019B591889B209E0114ACC32108808
:1045E0006054191C0C330D311288120AE2540A4B24
:1045F0001B78022B02D10B1C0C3B01E00B1C093B6E
:104600003B701B123370201C084B9847084B98478F
:10461000084B9847F7BDC04611000020A0AC000031
:10462000580F00200410002095770000654200001C
:1046300071400000B92300000C4B70B5041C082029
:104640009C4211D0002312225A43094DD8B2561968
:104650007689A64204D1002906D0535D0B7003E091
:104660000133082BEFD1181C70BDC046FFFF0000BE
:10467000C80E0020002312225A430649D8B252180D
:104680005189054A914203D00133082BF3D1181CFC
:104690007047C046C80E0020FFFF0000F0B5141C94
:1046A0000A7885B0031C501E01924D780F2800D95E
:1046B00083E001F04FFC085682825656826A2C1124
:1046C000248F828238463A20002D00D183E01B0AD5
:1046D0002380A57034387EE002AAD61D01221F0A6D
:1046E000381C311C3D4B32709847072803D833786B
:1046F0003A20002B6FD06780257109206BE03A20AB
:10470000002D68D01B0A2380A5702C3863E03A2066
:10471000002D60D01B0A23800023A570A380E380B6
:104720002381333857E03A20002D54D025722C4C89
:104730002C4B2D482D498F222568A84723682C48EB
:104740000CE03A20002D46D02571254C254B2648FB
:1047500026499F222568A84723682648984729208C
:1047600039E03A20002D36D01D4F2049B5221D4B8F
:104770001D483E68B0473B681F48291C98476B4658
:104780001B79E570A370112025E03A20002D22D07E
:104790001B0A63802570201D00210522174B9847B6
:1047A0000F4C1249C7220F4B0F482668B0472368A9
:1047B0001348291C984712200DE0094C0B49D122BF
:1047C000084B09482568A84723680E48019998476F
:1047D000002000E03A2005B0F0BDC0463946000098
:1047E000F0000020BCAD0000888A0000A4AC0000EE
:1047F000FEAC000020AD000042AD0000A777000035
:1048000069AD000092AD0000F0B587B000930CAB2D
:104810001B78039204930DAB1B78844605930EAB73
:104820001A883F4B0F1C1B780024022B08D1522101
:104830003C4B03341B681970053159703639997037
:10484000384B02211D6805232B55631CE9540E23A8
:1048500061186B54E11C6B54231DEA54102200268E
:10486000631DEA54A31DEE54E31DEB181E70019363
:10487000231C201C0833EB180930614602931E707C
:104880001022294B28189847231C201C1933EF5459
:104890003A0A0133EA543A0C0133EA543F0E013329
:1048A0001D30EF54039910221F4B281898476A4671
:1048B000231C12782D33EA54009A0133120AEA5469
:1048C000009A0133120CEA54221C009B30321B0E5A
:1048D000AB546A46231C127C3133EA546A46211CCD
:1048E0000133127DEE540133EA5434340C4B2E550F
:1048F0001B783531022B02D10B1C0C3B01E00B1C49
:10490000093B019A281C1370029B1E70074B9847A5
:10491000074B9847074B9847002007B0F0BDC046AB
:1049200011000020A0AC0000957700006542000057
:1049300071400000B9230000F0B545780378304C91
:104940002D021D43A585C37882788BB01B021A43C4
:104950006B4605929B8A2021E385437902791B02ED
:104960001A436B4606921B8B061C2386C3798279F9
:104970001B021A436B4607926A469B8B521863864A
:10498000437A011C0893231C1278773378341A7009
:104990000A3106221B4B201C9847337C09931A4B83
:1049A00098471A4E071E072F1BD812234343F018AF
:1049B000458169462425491909780622F1542021A8
:1049C0006B465B181B78211C43706B469B8A023038
:1049D00043816B461B8B83816B469B8BC381094B49
:1049E0009847122100234F4300930193F6197189D0
:1049F000074A0291101C191C064CA0470BB0F0BDD1
:104A0000580F00209577000075460000C80E002062
:104A10005009002009480000021C08B543780078BE
:104A20001B021843088093788B700021054B984730
:104A3000072806D812235843034B181801235B425A
:104A4000438108BD39460000C80E0020F8B50E7835
:104A5000031CB01E05285DD8151C0C1C01F07AFA49
:104A60000D035A2F40470920002A54D01B0A5380B7
:104A70008B782948137100211CE00920002A4AD0B4
:104A8000254C1B0A53808B780027101C211C1370A7
:104A9000224E17712E3117223230B047281C211CAC
:104AA00010221E312230B047A11CA81D1C22B04785
:104AB000201C391C46221A4B984709202BE0164D22
:104AC0000231281C1022154E2E30B047281C211C04
:104AD0003F3012310622B047237E3E352B7019E05D
:104AE0000D48023110220D4B1E30984712E00A4D3E
:104AF00002311022094EA81CB047281C211CE37C5F
:104B0000A27C1B0213431430143108226B82B0477D
:104B1000237F2B770020F8BD6009002095770000E7
:104B2000A7770000F7B5031C081C0978447807290B
:104B300000D98FE0081C01F00DFA048D8D8D0C8DCD
:104B400020200A20002A00D185E01B0A13809470DF
:104B500081E0002A0BD01B0A1380002C02D1012314
:104B6000937004E000239370022C02D1D3700C20C8
:104B700071E0012CFBD1D470F9E7374A1B0A127897
:104B800036480024022A07D10268523414700534D2
:104B90005470363C94701E3C0522056814202A553A
:104BA000621CA8540638A21CA854E21CA854221D5A
:104BB000AB541022631DEA540023A01D2B54E71DA3
:104BC00002302818EF193B700370231C019001205C
:104BD0000933E9541B18E854201C0B30204E2818C8
:104BE00007291CD1311C1F4B7E319847331C221CD6
:104BF0008E3319881B32201CA954311C1B880132AA
:104C00001B0A1D30AB549031164B281808229847C8
:104C1000211C98363378253426312B5505E0311C7C
:104C2000104B9A319847211C1B310B4B1A780023EB
:104C3000022A02D10A1C0C3A01E00A1C093A3A7015
:104C4000019A1370054B1868074B9847074B984714
:104C5000074B98470020FEBD11000020A0AC0000CB
:104C6000580F002095770000654200007140000059
:104C7000B923000008B5000A10804B7808781B02A1
:104C800003435380101D02310822014B984708BD91
:104C9000957700000B78000AD37000231080937082
:104CA00070470023000A108093704B7808781B022D
:104CB00003439380CB7888781B020343D3804B79DE
:104CC00009791B020B43072013817047000A1080EB
:104CD0004B7808781B0203435380CB7888781B02FB
:104CE000034393804B7908791B020343D380CB792C
:104CF00089791B020B4308201381704738B50B1CC0
:104D0000010A11801878907000280FD1094BAA333E
:104D10001B88002B0AD1084C0849094A094B256811
:104D20000948A84723680948984701E0084B984775
:104D300038BDC046580F0020F0000020A4AC000091
:104D4000B1020000C9AD0000888A0000A8AD0000D3
:104D5000F9440000000A108009780123081C890822
:104D600018400B40D07013717047000A10804B78C8
:104D700018028B781B04034308780343C8780006A5
:104D8000034353604B7918028B791B040343087962
:104D9000C979034309060B43002093607047000064
:104DA00010B5000A1080087890708B784C781B0240
:104DB00023439380012827D0002817D002282AD126
:104DC0000B79C8781B02034313818B7948791B0246
:104DD0000343D3800B7AC8791B02034393818B7AF8
:104DE000497A1B020B435381062313E0141C201C39
:104DF0000A79CB7812021A43E280074B083005315A
:104E000098470223A37006E00B79C9781B020B4375
:104E1000D3800523937010BD9577000008B500235B
:104E2000000A13705080024B101D0522984708BDE0
:104E300095770000437802781B0213430B80C378F8
:104E400082781B0213434B80437902791B02134380
:104E50008B80C37982791B021343CB8000230B72B2
:104E60007047437802781B0213430B80C378827823
:104E70001B0213434B807047437802781B02134395
:104E80000B80C37882781B0213434B8043790279ED
:104E90001B0213438B80C37982791B021343CB809F
:104EA0007047437802781B0213430B80C3788278E3
:104EB0001B0213434B80437902791B0213438B80FF
:104EC00070470000F0B5344F85B039780197334A08
:104ED0000023022907D11368503119700531597028
:104EE0003639997003231068052202210D2400250C
:104EF0000127C2545A1C81545A188454DA1C845411
:104F00001A1D85540E315A1D81549A1D8554DE1D7B
:104F10000232191C86190933821835701570C7546E
:104F2000D0271F4B3F019C80019C1F8027780A31AE
:104F30001C1C0B1C022F04D10C3B33701B12137072
:104F400002E0093B33701570164B9847061CE120B0
:104F5000002E1FD1144B984702ABDD1DDE71281CBB
:104F6000124B9847124B98472B78D020002B11D129
:104F7000A3681C785878012C0CD00E4D0E494A229B
:104F80000E4B0F482E68B0472B680E480121221C9B
:104F90009847E22005B0F0BD11000020A0AC000051
:104FA000BC0E002065420000714000004125000059
:104FB000B9230000F0000020FEAD0000E7AD0000C6
:104FC000888A000058AE0000F0B58BB0059310AB96
:104FD0001B780024069311AB1B78079312AB1B8838
:104FE000029313AB1B88039314AB1B880493534B9E
:104FF0001B78022B08D1524B52341B681C700534AD
:105000005C70363C9C701E3C4D4B04261D6805238D
:105010002B55631CEE54A31C0936EE540D26E31CDD
:10502000EE5400261027231DEE54631DEF54A31DDC
:10503000EE54E31DEB181E700093231C0833EB188D
:105040001E700193231C03270933EF540133E854E6
:10505000201C0133E9540D300133090AE954394F5A
:10506000111C28180622B847201C1330059910225D
:105070002818B8476A46231C127E2333EA546A462E
:10508000127F0133EA546A46127A0133EA54221C31
:10509000029B26321B0AAB546A46231C127B273321
:1050A000EA54221C039B28321B0AAB546A46231C79
:1050B000127C2933EA54049B211C1B0A2A342B55E9
:1050C000D023214C1B0123800D23A3801B4B2B31AC
:1050D0001B78022B02D10B1C0C3B01E00B1C093B83
:1050E000009A281C1370019B1E70184B9847061CD1
:1050F000E120002E1FD1164B984708ABDD1DDE7155
:10510000281C144B9847144B98472B78D020002B21
:1051100011D1A3681C785878032C0CD00F4D10497E
:105120006622104B10482E68B0472B680F480321A9
:10513000221C9847E2200BB0F0BDC04611000020B1
:10514000A0AC000095770000BC0E00206542000076
:105150007140000041250000B9230000F00000204C
:10516000FEAD000088AE0000888A000058AE000046
:1051700038B5051C0C1C481C0622291C024B9847FC
:10518000AB790020237038BD95770000F7B506781D
:105190004578301C0C380C1C0B2800D98CE000F032
:1051A000D9FE521919198B060659598B8B0D0023FC
:1051B000452D00D02B1C237002208AE03A20002DC0
:1051C00000D186E00D70481C10220021414B984709
:1051D0000F207EE0002D34D13F4B9847431EDBB2B9
:1051E000281C062B75D86B463C4ED91DB08D3C4B08
:1051F0009847122358433B4909180B1C4A89083326
:1052000022814F78A57227708A89601CA281DB8871
:105210000231E381CB8906222382334B9847002F4A
:105220000AD0A3793F22191C01359143C02903D02C
:105230005B06DB0F0235ED1A01235B422570B38557
:1052400038E00D7004E00023452D00D02B1C2370A6
:1052500003203EE0214E0021B08D214B98470728C6
:1052600018D801235B42B385133358431D490918ED
:105270000B1C4A89083322814A78A57222708A89D8
:10528000601CA281DB880231E381CB890622238264
:10529000154B98470022237893420AD0A3793F32D6
:1052A000191C91433E3AC02903D05B06DB0F023242
:1052B000D21A227005200CE026220C4C0C49FF3239
:1052C0000C4B0D482568A84723680C48311C9847AB
:1052D0000020FEBDA777000075460000580F002093
:1052E00039460000C80E002095770000F00000202D
:1052F000FEAD0000A8AE0000888A000070AE00007D
:10530000F0B58BB0059310AB04CB0AAC1B880193AE
:1053100012AB1B88029313AB1B78069314AB1B785C
:10532000079315AB1B78089316AB1B789C46192383
:105330001B19DB7F002403931AAB1B8804931BAB60
:105340001B780993564B1B78022B08D1554B5234CE
:105350001B681C7005345C70363C9C701E3C514BC5
:105360000D261D6805232B55631CEE54A31CEE541B
:10537000E31CEE5400231027261DAB55661DAF55C8
:10538000A61DAB55E61DAE1933700096261C271CD2
:1053900008360937AE193370E8550137E955211C35
:1053A0000B316B5401316B546946231C09790D3361
:1053B000E954211C019B0E311B0A6B546946231CC6
:1053C000097A0F33E954211C029B6F461B0A1031E6
:1053D0006B54231C3F7E01310E3812336F54012869
:1053E0000FD81834A1B2002A05D0111CE8180622E3
:1053F0002D4B9847A1B26B461B7D6B5439318CB253
:105400001FE06A46127F2021EA546A46231C521884
:1054100012781333201CEA54624601331530EA54E3
:1054200017996246204F2818B8476A46231C201C4B
:10543000127B31333230EA5428181999039AB8474D
:105440005134A522631C9BB22A55EA546A46A31C18
:10545000127C9BB2EA54049BE21C92B21B0AAB542E
:1054600024226B469B18611D1B780434A4B22B5573
:105470000B4B89B21A780023022A02D10A1C0C3A7B
:1054800001E00A1C093A009802703370281C074B8F
:105490009847074B9847074B984700200BB0F0BD43
:1054A00011000020A0AC00009577000065420000CC
:1054B00071400000B9230000044B01201B79022B2E
:1054C00003D0033B5842584140007047580F00201A
:1054D000F7B54378051C01936B460C1C1B790678C5
:1054E00006224B70881C1B4FA91CB847201C291C86
:1054F0002A7A0830C27709312835B8472B785AB252
:10550000002A01DA0133DBB2221C28321370002298
:10551000019B93420AD0E3793F32191C91433E3AF2
:10552000C02903D05B06DB0F0232D21A6270042E50
:105530000FD8301C00F00EFD030507090B000023F7
:1055400006E0012304E0022302E0032300E0052338
:105550002370F7BD9577000070B5041C081C0D1C66
:10556000054E211C06221130B047681CA11D1022D7
:10557000B04700232B7070BD9577000010B54378BD
:105580000279447900781B0203431B2B04D10023CA
:105590000B70230213434B803A2010BD43780278EE
:1055A0001B0213434B80704708B5131C000A108080
:1055B0004A780878120202435A80CA788878120220
:1055C00002439A804A79087912020243DA8008334A
:1055D000181C0631014B984708BDC046957700005E
:1055E000437802781B0213430B807047F7B51D1CEC
:1055F0002C4B2D4C1E780023022E07D123685036E9
:105600001E7005365E70363E9E70032305261427F5
:105610002468E6545E1CA755083F9E1CA755DE1C57
:10562000A7551E1DA1551026591D66541F1C00218B
:105630009E1DA1550837DE1DE719A6193170397076
:10564000191C01971F1C09316054000A0131605474
:1056500001316554280A0131605401310E3762541A
:10566000002D07D008992A1CE019104B7D19984786
:10567000A9B202E00F33191CE5550A4B1B78022B27
:1056800002D10B1C0C3B01E00B1C093B019A33704F
:105690001B121370201C064B9847064B9847064B6D
:1056A0009847F7BD11000020A0AC000095770000DE
:1056B0006542000071400000B9230000F8B594462F
:1056C000214A224C15780023022D07D1236850353A
:1056D0001D7005355D70363D9D700323052516262A
:1056E0002468DF1DE5545D1C66550C259E1CA555E0
:1056F000DE1CA5551D1D61551025591D65541D1C29
:105700000026991D08356654E719033165193E7066
:105710002E7060540131000A605460460B33E0542F
:1057200013780231022B02D10B1C0C3B01E00B1C45
:10573000093B3B70201C2E70054B9847054B984742
:10574000054B9847F8BDC04611000020A0AC0000F2
:105750006542000071400000B9230000F8B59C4686
:10576000244B254D1B780024022B07D12B68523483
:105770001C7005345C70363C9C701E3C052318265A
:105780002D6800272B55631CEE540C23A61CAB552B
:10579000E61CAB55231DE9541021631DE954211C5F
:1057A000A31DEF540536E31D0931EB18AE191F7028
:1057B000377068540131000A685401316A5401316C
:1057C000120A6A5462460D342A550A4A0231127886
:1057D000022A02D10A1C0C3A01E00A1C093A1A708A
:1057E000281C3770054B9847054B9847054B984741
:1057F000F8BDC04611000020A0AC000065420000CA
:1058000071400000B9230000F8B5224F224A3C78CD
:105810000023022C07D1136850341C7005345C70CF
:10582000363C9C70032305240E2512681E1CD4549C
:105830005C1C15550C249D1C5455DD1C54551C1D19
:10584000105510240025581D1454981D1554DC1DA6
:10585000023009361419101825700A330570915555
:10586000090AD1543B780236022B05D1331C0C3B7C
:1058700023701B12037003E0331C093B2370057077
:10588000311C101C054B9847054B9847054B984712
:10589000F8BDC04611000020A0AC00006542000029
:1058A00071400000B923000070B5151C000A10807B
:1058B0004B780A781B0213436B80CB788A781B02E3
:1058C0001343AB800E79054B301C0C1C9847321CDF
:1058D000A871611DE81D024B984770BDB9350000E5
:1058E0009577000070B5151C000A10804B780A7877
:1058F0001B0213436B80CB788A781B021343AB8067
:105900004B790A791B021343EB808E79054B301CCF
:105910000C1C98472872281C321CE11D024B0930D0
:10592000984770BDB93500009577000070B5151C1B
:10593000000A10804B780A781B0213436B80CB78E7
:105940008A781B021343AB800B790C1CAB714E7928
:10595000054B301C9847E871281C321CA11D034BD5
:105960000830984770BDC046B935000095770000F3
:1059700070B5151C000A10804B780A781B0213437F
:105980006B808E78054B301C0C1C9847321C28719C
:10599000E11C681D024B984770BDC046B935000038
:1059A0009577000010B50C78131C122C0ED1000A4C
:1059B00010808A789A7048790C7900022043988088
:1059C0000631981D0B4B98471B2210E00022132C28
:1059D0000DD1000A18808A789A700879CC78000274
:1059E000204398800631981D024B98471C22101CBA
:1059F00010BDC0469577000070B5141C000A1080D9
:105A000008789070CB784A7889781B020B43264936
:105A100001380B80E270132835D800F09BFA0C4255
:105A200042424242421F1F1F1D0A0A0A0A34341111
:105A30001732252036E02420002A33D1163031E0F9
:105A40001A4A1D201368013B13602BE0174A1E20E1
:105A50001368013B136025E0192023E03A20002A57
:105A600020D082239B00E254E422114C11495200C1
:105A7000114B12482568A8472368114898471820F9
:105A800010E021200EE0EC22094D0A4952000A4B99
:105A90000A482E68B047A1782B680A48984700202A
:105AA00000E0172070BDC046A6090020A80900200C
:105AB000F0000020B5AE000030AF0000888A000082
:105AC00010AF000092AD0000000A10804B780978FA
:105AD0001B020B4353807047000A08B51080131C4B
